:100000000C944C030C9474030C9474030C947403BC
:100010000C9474030C9474030C9474030C94740384
:100020000C9474030C9474030C9462090C94D1091D
:100030000C9474030C9474030C9474030C94740364
:100040000C9474030C9474030C9474030C94740354
:100050000C9474030C9474030C9474030C94030CAC
:100060000C9474030C9474030C9474030C94740334
:100070000C9474030C9474030C9474030C94740324
:100080000C944D0C0C9474030C9474030C94740332
:100090000C9474030C9474030C9474030C94740304
:1000A0000C9474030C94A80C0C94740300000000CE
:1000B000003E5B4F5B3E3E6B4F6B3E1C3E7C3E1CEE
:1000C000183C7E3C181C577D571C1C5E7F5E1C0034
:1000D000183C1800FFE7C3E7FF0018241800FFE7EB
:1000E000DBE7FF30483A060E2629792926407F05AE
:1000F0000507407F05253F5A3CE73C5A7F3E1C1CC4
:1001000008081C1C3E7F14227F22145F5F005F5F83
:1001100006097F017F006689956A6060606060946F
:10012000A2FFA29408047E040810207E2010080874
:100130002A1C08081C2A08081E101010100C1E0C7F
:100140001E0C30383E3830060E3E0E060000000011
:100150000000005F00000007000700147F147F14F8
:10016000242A7F2A1223130864623649562050003D
:1001700008070300001C2241000041221C002A1C29
:100180007F1C2A08083E0808008070300008080814
:100190000808000060600020100804023E51494534
:1001A0003E00427F400072494949462141494D3352
:1001B0001814127F1027454545393C4A49493141B9
:1001C000211109073649494936464949291E000087
:1001D00014000000403400000008142241141414DC
:1001E0001414004122140802015909063E415D59C8
:1001F0004E7C1211127C7F494949363E41414122D1
:100200007F4141413E7F494949417F090909013EFA
:10021000414151737F0808087F00417F4100204021
:10022000413F017F081422417F404040407F021C33
:10023000027F7F0408107F3E4141413E7F0909094A
:10024000063E4151215E7F09192946264949493216
:1002500003017F01033F4040403F1F2040201F3FDC
:100260004038403F63140814630304780403615961
:10027000494D43007F4141410204081020004141A3
:10028000417F04020102044040404040000307084F
:100290000020545478407F2844443838444444284B
:1002A000384444287F385454541800087E090218F2
:1002B000A4A49C787F0804047800447D400020407A
:1002C000403D007F1028440000417F40007C0478BE
:1002D00004787C080404783844444438FC18242406
:1002E0001818242418FC7C08040408485454542486
:1002F00004043F44243C4040207C1C2040201C3C03
:100300004030403C44281028444C9090907C4464F9
:10031000544C44000836410000007700000041368C
:10032000080002010204023C2623263C1EA1A16112
:10033000123A4040207A3854545559215555794144
:100340002154547841215554784020545579400C1B
:100350001E527212395555555939545454593955FC
:100360005454580000457C410002457D420001453F
:100370007C40F0292429F0F0282528F07C545545AC
:10038000002054547C547C0A097F4932494949323F
:100390003248484832324A4848303A4141217A3A54
:1003A00042402078009DA0A07D39444444393D401E
:1003B00040403D3C24FF2424487E4943662B2FFCCB
:1003C0002F2BFF0929F620C0887E09032054547979
:1003D000410000447D413048484A32384040227A4A
:1003E000007A0A0A727D0D19317D2629292F2826C7
:1003F0002929292630484D402038080808080808CF
:100400000808382F10C8ACBA2F102834FA00007B27
:10041000000008142A142222142A1408950022002D
:1004200095AA005500AAAA55AA55AA000000FF00E7
:10043000101010FF00141414FF001010FF00FF1024
:1004400010F010F0141414FC001414F700FF000056
:10045000FF00FF1414F404FC141417101F10101FD5
:10046000101F1414141F00101010F0000000001FC3
:10047000101010101F10101010F010000000FF10CE
:100480001010101010101010FF10000000FF1400CA
:1004900000FF00FF00001F10170000FC04F41414FC
:1004A0001710171414F404F40000FF00F7141414C8
:1004B00014141414F700F7141414171410101F1048
:1004C0001F141414F4141010F010F000001F101F6B
:1004D0000000001F14000000FC140000F010F010D9
:1004E00010FF10FF141414FF141010101F00000050
:1004F00000F010FFFFFFFFFFF0F0F0F0F0FFFFFF54
:100500000000000000FFFF0F0F0F0F0F38444438AA
:10051000447C2A2A3E147E02020606027E027E02E5
:1005200063554941633844443C04407E201E200604
:10053000027E020299A5E7A5991C2A492A1C4C7241
:1005400001724C304A4D4D303048784830BC625AC8
:10055000463D3E494949007E0101017E2A2A2A2A58
:100560002A44445F444440514A444040444A514034
:100570000000FF0103E080FF000008086B6B0836F5
:1005800012362436060F090F060000181800000066
:100590001010003040FF0101001F01011E00191D55
:1005A0001712003C3C3C3C0000000000030000002F
:1005B00000250028002B002E003100000000002440
:1005C0000027002A002D0030000404040404030462
:1005D00005020202020403020202020606060606E1
:1005E00006040402020204040408020110408040D0
:1005F0001020408040800802040180402010020149
:1006000010801020404020D5F08D14A1C881CFD992
:10061000F1AF2000C0A0D921A800A800220007A89F
:1006200007220007504F4E472100080B000202022C
:10063000000009040000010202000005240010016E
:100640000524010101042402060524060001070512
:10065000810310004009040100020A0000000705A0
:100660000202400000070583024000000403090461
:1006700012010002EF020140412336800001010215
:10068000030141726475696E6F204C4C43004172E6
:100690006475626F79000D0D11241FBECFEFDAE093
:1006A000DEBFCDBF11E0A0E0B1E0E4ECF4E202C0B7
:1006B00005900D92A837B107D9F726E0A8E7B1E079
:1006C00001C01D92A331B207E1F713E0CCE4D3E0FF
:1006D00004C02197FE010E945A12CB34D107C9F7FA
:1006E0000E942A0D0C9460120C940000FC01809171
:1006F000BE05882311F13FB7F89482E08093E900AA
:100700002091F200822F90E01816190614F481E06F
:1007100090E0882339F0289844E64093BD05409145
:10072000F1004083222339F02091F200211103C00F
:100730002BE62093E8003FBF08958FEF9FEF0895C9
:100740002FB7F89483E08093E9009091E800892F17
:10075000807295FF04C09091F20080E4891B2FBF46
:1007600008958091B50581110DC082E08093B10597
:1007700084E08093B2051092B4051092B30581E035
:100780008093B50581EB95E00895CF93DF931F9299
:10079000CDB7DEB76983DC01ED91FC910280F38176
:1007A000E02D41E050E0BE016F5F7F4F09950F9053
:1007B000DF91CF91089583E08093E9008091F2006A
:1007C000882319F08AE38093E80008950E94A0032B
:1007D00090E00895CF93DF931F92CDB7DEB7FC0171
:1007E0008485958597FD08C02FEF3FEF35872487D7
:1007F0000F90DF91CF910895CE0101960E9476036C
:10080000019719F4898190E0F3CF8FEF9FEFF0CF3C
:100810000F931F93CF93DF931F92CDB7DEB78C0159
:10082000FC018485958597FF0BC0CE0101960E943F
:100830007603019771F4898190E0F80195878487A8
:10084000F801848595850F90DF91CF911F910F91CD
:1008500008958FEF9FEFF1CFFC018485958597FD7B
:100860000BC09FB7F89482E08093E9008091F2007A
:100870009FBF90E0019608959FB7F89482E080931F
:10088000E9008091F2009FBF90E008954091AB0590
:100890005091AC052091A9053091AA054217530744
:1008A000B4F49091E8009570E1F39091E80092FD26
:1008B00019C08093F1008091AB059091AC05019631
:1008C0008F739927892B19F48EEF8093E80080911C
:1008D000AB059091AC0501969093AC058093AB0568
:1008E00081E0089580E00895DF92EF92FF920F93E8
:1008F0001F93CF93DF93D82E8A01EB017B01E40E87
:10090000F51ECE15DF0559F0D7FE12C0FE01849109
:100910000E94460421968111F4CF0FEF1FEFC8010A
:10092000DF91CF911F910F91FF90EF90DF9008958D
:100930008881EECF0F931F93CF93DF931F92CDB794
:10094000DEB782E0898342E450E06AE276E080E844
:100950000E9474040E94B103DC0112960D911C9157
:100960000115110589F0D801ED91FC910280F38108
:10097000E02DBE016F5F7F4FC801099597FD04C050
:10098000F80100851185ECCF89810F90DF91CF911F
:100990001F910F910895615030F02091F100FC01FA
:1009A00020830196F8CF289884E68093BD050895AA
:1009B000FC010E947305319728F068517C4F8F4FDE
:1009C0009F4FF9CFAB01FC010E94730564177507B7
:1009D0008E079F07C8F3089585E090E00C94D80433
:1009E0008F929F92AF92BF92CF92DF92EF92FF923F
:1009F0000F931F93CF93DF936C017B018A0180914A
:100A00001601882309F45AC08091BE05882309F491
:100A100055C08091B00580FF05C08091E0008260E4
:100A20008093E000E801B12C8AEFA82E93E0892E94
:100A30002AE3922E209711F4BB20C9F10E94A00353
:100A4000811108C0AA94AA20C9F181E090E00E9417
:100A5000D804F0CF8C171D0611F00CF08C2F9FB727
:100A6000F8948092E9002091E80025FD02C09FBF24
:100A7000E1CF282F30E0C21BD30BF701815020F0CB
:100A800041914093F100FACFE20EF31EBB2021F01A
:100A90009092E800B12CEBCF8091E80085FDE7CF84
:100AA0009092E800BB24B394209709F3F3CF5D98AC
:100AB00084E68093AF05101611063CF081E090E0CB
:100AC000F6019383828310E000E0C801DF91CF91AB
:100AD0001F910F91FF90EF90DF90CF90BF90AF905C
:100AE0009F908F900895A5EAB5E02FB7F8947D9177
:100AF0008D919C9166B52FBFA89B05C06F3F18F4E0
:100B00007F5F8F4F9F4F22E0660F771F881F991FCF
:100B10002A95D1F70895AB01FC010E94730541505D
:100B20005109E109F10928F068517C4F8F4F9F4F1F
:100B3000F6CFAB01FC010E947305641775078E07A1
:100B40009F07C8F30895811105C081E0611106C0B7
:100B500080E004C0813019F46230D0F3089581E060
:100B60006330E0F7F5CF8F929F92AF92BF92CF9212
:100B7000DF92EF92FF921F93CF93DF93EB01690116
:100B80007A0190910001891771F09F3F91F0DF91F8
:100B9000CF911F91FF90EF90DF90CF90BF90AF90DB
:100BA0009F908F900895ECEAF5E0149117FDEFCF38
:100BB0004EC080930001ECEAF5E014911F3F39F339
:100BC000113009F4AEC038F1133009F4CCC0143040
:100BD00069F71092C0001092C1009091C100986016
:100BE0009093C1009091C10091609093C100282F13
:100BF00030E0F901E753FA4FE491F0E0EE0FFF1F08
:100C0000E355FA4F45915491F901E851FA4FE491B7
:100C1000E0937D011CC014BC15BC94B5926094BDDA
:100C200095B5916095BD282F30E0F901E753FA4F53
:100C3000E491F0E0EE0FFF1FE355FA4F4591549118
:100C4000F901E851FA4FE491E0937F0110E090E060
:100C5000FC01E851FA4F249187539A4FFC0184918B
:100C6000882399F090E0880F991FFC01E554FA4F12
:100C7000A591B491FC01E355FA4F859194918FB7FA
:100C8000F894EC912E2B2C938FBF4E01B12CA12CFC
:100C9000812F8D7F09F08DC0123071F460E970ED05
:100CA00083E090E0A5019E010E94F71121303140C0
:100CB000410551050CF46BCF68E478EE81E090E0DB
:100CC000A50194010E94F71149015A0181E0881A97
:100CD0009108A108B108112309F4CFC0DE01AA0FC1
:100CE000BB1FA70196010E94161228EE33E040E0D8
:100CF00050E00E942912113009F486C00CF0A8C0FF
:100D0000111145CF87BC209388013093890140930E
:100D10008A0150938B0180916E00826080936E00F7
:100D200036CF1092800010928100909181009860DF
:100D30009093810090918100916090938100282F81
:100D400030E0F901E753FA4FE491F0E0EE0FFF1FB6
:100D5000E355FA4F45915491F901E851FA4FE49166
:100D6000E0937E0174CF10929000109291009091C8
:100D70009100986090939100909191009160909370
:100D80009100282F30E0F901E753FA4FE491F0E0A9
:100D9000EE0FFF1FE355FA4F4591549150938D018B
:100DA00040938C01F901E851FA4FE491E0938E01F0
:100DB0004ECF60E072E18AE790E0A5019E010E94BB
:100DC000F71149015A01E1E08E1A9108A108B10812
:100DD000113039F480918100887F81608093810097
:100DE0007DCF133039F480919100887F81608093AA
:100DF000910074CF143009F071CF8091C100887FC9
:100E000081608093C1006ACF9092890080928800AF
:100E1000209384013093850140938601509387018C
:100E200080916F00826080936F00B1CE90929900A4
:100E30008092980020938F0130939001409391010C
:100E400050939201809171008260809371009FCED7
:100E5000133061F3143009F09ACE8092CF002093C2
:100E600080013093810140938201509383018091EE
:100E700072008064809372008ACE85B5887F83601B
:100E800085BD2CCFAF92BF92CF92DF92EF92FF92AF
:100E90000F931F93CF93DF936C017B018B01040FA2
:100EA000151FEB015E01AE18BF08C017D10759F03E
:100EB0006991D601ED91FC910190F081E02DC60180
:100EC0000995892B79F7C501DF91CF911F910F917A
:100ED000FF90EF90DF90CF90BF90AF9008958EBDC0
:100EE00000000DB407FEFDCF089590E1282F81E0AA
:100EF00061FD84E060FD880F62FD8295687F969FAA
:100F0000D0011124A20FAD56BE4F0C90082A40FF0D
:100F100008260C9208952CE330E040E050E067E9A9
:100F200074E085E00C94B30528E230E040E050E046
:100F300060E173E085E00C94B30524E130E040E02B
:100F400050E060E773E085E00C94B30524E130E005
:100F500040E050E06CED73E085E00C94B3050F9336
:100F600060340CF081C0E42FF0E0E80FF11D87FD44
:100F7000FA951E161F060CF077C0E22FF0E0E60F80
:100F8000F11D67FDFA951E161F060CF06DC000FDE1
:100F90000FEF382F67FF02C0260F60E087FF02C007
:100FA000480F30E090E8931B491708F4942F80E431
:100FB000861B281708F4822F860F21E061FD24E0AC
:100FC00060FD220F62FD2295219571E081FD74E0A4
:100FD00080FD770F82FD72957195522F5095472FA6
:100FE0004095815066956695669586958695869519
:100FF000E3E9F1E0A0E86A9FE00DF11D1124E30FA1
:10100000F11D861B511101C08F5F411101C08F5F1F
:1010100030E8391B2023642F6023882319F4752BB3
:1010200062231CC0552349F0A92F00800522022A03
:101030000192AA95D1F7E30FF11D8A9569F0A92FC6
:10104000A0FF02C0A39501C001930193A250E1F754
:10105000E30FF11D8A9599F7442331F000800722B0
:10106000062A01929A95D1F70F9108956F927F9277
:101070008F929F92AF92BF92CF92DF92EF92FF92A8
:101080000F931F93CF93DF936D3081F000919605FE
:10109000109197056A30D9F410929905109298052D
:1010A000085F1F4F109397050093960581E090E02D
:1010B000DF91CF911F910F91FF90EF90DF90CF9034
:1010C000BF90AF909F908F907F906F900895C62FA4
:1010D000E0909805F0909905D0919A0560910101F2
:1010E0008D2F0E94A305782E60E08D2F0E94A3050E
:1010F000682E78122FC0672D8D2F0E94A305782EA1
:10110000570126E0A20EB11CE701480188E0880ED5
:10111000911CCA15DB0509F44FC0680117FF02C016
:10112000D12CC12CC401E1E48E16910414F080E4AA
:1011300090E0C816D90664F4C038D10528F4472DCC
:10114000B601CE010E947507FFEFCF1ADF0AEACF82
:101150002196DFCF25E0C29FE0011124C455DF4F67
:101160005701D12C85E0C12CD81629F0CE0101966B
:10117000FE01C490EC01912C812C462DC0FC472D22
:10118000F0E8AF16B10448F4B801680D791D603479
:10119000710518F4C5010E947507C6942FEF821AD5
:1011A000920A88E08816910441F7D394EFEFAE1AC3
:1011B000BE0AF6E0DF12D6CF26E0E20EF11CF09276
:1011C0009905E092980572CF30E73CBDDC0130E82C
:1011D000439FC0011124A80FB91F5E91352F6111E3
:1011E000372F3C93C89500C052235EBD0197A9F7E5
:1011F00004D003D030E50DB43CBD08951F93CF93C8
:10120000DF93EC01162F5C98FE018591EF010E949F
:101210006F071150C9F75C9ADF91CF911F91089524
:10122000089590E080E008958F929F92AF92BF92D0
:101230000F931F93CF93DF93CDB7DEB7A1970FB670
:10124000F894DEBF0FBECDBF19A2423008F44AE0C9
:101250008E010F5D1F4F842E912CB12CA12CA50166
:1012600094010E942912E62FB901CA01EA3044F51F
:10127000E05DD801EE938D01232B242B252B79F7EC
:1012800090E080E0109769F0FD0101900020E9F7FF
:101290003197AF014A1B5B0BBD018FE096E00E94C6
:1012A0004207A1960FB6F894DEBF0FBECDBFDF9107
:1012B000CF911F910F91BF90AF909F908F90089505
:1012C000E95CD7CF1F920F920FB60F9211248F9324
:1012D0009F938091E1009091E100937F9093E100D2
:1012E00083FF0FC01092E90091E09093EB00109201
:1012F000EC0092E39093ED001092BE0598E090937D
:10130000F00082FF22C093E09093E9009091F200F8
:10131000992319F09AE39093E8009091AF059923EF
:1013200041F09091AF0591509093AF05911101C09C
:101330005D9A9091BD05992341F09091BD05915022
:101340009093BD05911101C0289A84FF18C0809127
:10135000E2008E7E81608093E2008091E1008F7ECA
:101360008093E1008091B0058E7E80618093B0050E
:101370009F918F910F900FBE0F901F90189580FF37
:10138000F7CF8091E2008E7E80618093E2008091B1
:10139000E1008E7E8093E1008091B0058E7E8160B9
:1013A000E5CF1F920F920FB60F921124CF92DF92CA
:1013B000EF92FF920F931F932F933F934F935F935F
:1013C0006F937F938F939F93AF93BF93EF93FF930D
:1013D000CF93DF93CDB7DEB76C97DEBFCDBF109252
:1013E000E9008091E80083FF25C068E0CE014596C2
:1013F0000E94CB0482EF8093E8008D8987FF39C07B
:101400009091E80090FFFCCF982F907609F034C1BE
:101410009E894F89588D2F89F88C911131C0803861
:1014200061F58091AE058093F1001092F1008EEF8E
:101430008093E8006C960FB6F894DEBF0FBECDBF68
:10144000DF91CF91FF91EF91BF91AF919F918F91DC
:101450007F916F915F914F913F912F911F910F91CC
:10146000FF90EF90DF90CF900F900FBE0F901F90E6
:1014700018959EEF9093E800C7CF1092F100D5CF5A
:10148000913059F48111D3CF4130510581F68091CB
:10149000AE058D7F8093AE05CACF933049F481119C
:1014A000C6CF4130510519F68091AE058260F2CF6A
:1014B000953041F48091E80080FFFCCF20682093B4
:1014C000E300B5CF963009F0A9C00B8D1C8D22E04A
:1014D0001092E9001092AC051092AB05F2122EC0EA
:1014E0001092AA051092A9050E949A041F8299E001
:1014F0009983FA8291E09E8390EA98879AEF998780
:101500002091AB053091AC05275F3F4F3C832B8387
:101510008D831092E9001092AC051092AB051093E8
:10152000AA050093A90549E050E0BE016F5F7F4F17
:1015300080E00E9474040E949A0479CF1093AA0557
:101540000093A9050E94B103DC0112960D911C9134
:101550000115110509F451C1D801ED91FC910480E8
:10156000F581E02DBE016B5E7F4FC80109950097A4
:1015700009F03EC1F80100851185EACFF3E0FF12C2
:101580000EC08F89882309F440C0823061F440E89E
:1015900067E08EE896E00E94DA0C811148CF81E284
:1015A0008093EB0047CF813029F440E86BE082E87C
:1015B00096E0F1CF833099F70E94B103DC011296D7
:1015C000ED90FC908E010F5F1F4F6801E114F10454
:1015D00079F0D701ED91FC910680F781E02DB801FB
:1015E000C7010995080F111DF701E084F184EECFC2
:1015F000D8011C92F60101900020E9F73197BF0154
:101600006C197D0940E0C601C6CF6CE676E0FB01AF
:10161000449150E080E80E94740409CF973009F4A7
:10162000BECF983021F481E08093F10000CF993053
:1016300009F0FDCE837009F0B2CFECE1F1E081E07A
:1016400031E096E32191222371F08093E9003093F9
:10165000EB00DF0111972C912093EC009093ED00AB
:101660008F5F873079F78EE78093EA001092EA0067
:101670008F898093BE05DBCE8B8D9C8D1092E90007
:101680001092AC051092AB059093AA058093A90522
:10169000898D811192C08E899D89913A49F4813258
:1016A00009F07DCF47E050E06FE071E080E0B3CF1C
:1016B000913209F074CF833269F48F89988DB0E04C
:1016C000A0E080930B0190930C01A0930D01B093C7
:1016D0000E01ADCE803269F48091E80082FFFCCF2C
:1016E00067E08FE091E00E94CB048BEF8093E800ED
:1016F0009ECE823209F09BCE8F8980931601EEEF49
:10170000FFE7859194918B3F9C4D51F1E0E0F8E02B
:1017100080910F0190911001A0911101B0911201DF
:10172000803B9440A105B105F1F48091160180FD44
:101730001AC0EE3F8AE0F80789F587E797E79183BB
:101740008083809160008093AD0588E19BE00FB6B7
:10175000F894A895809360000FBE9093600067CEC8
:10176000EEEFFAE0D5CF808191818737974709F076
:101770005ECEA89580916000886180936000809122
:10178000AD0580936000EE3F2AE0F20789F080917A
:10179000FE0A9091FF0A9183808349CE80819181D6
:1017A0008737980751F29093FF0A8093FE0AC5CFBE
:1017B0001092FF0A1092FE0A3ACE0E94B103DC0199
:1017C00012960D911C910115110509F4E8CED8016E
:1017D000ED91FC910190F081E02DBE016B5E7F4F99
:1017E000C8010995811123CEF80100851185EBCF41
:1017F000181619060CF41BCED2CEF1E0FF12BECEA5
:1018000060E776E004CF0F920FB68F939F93EF932C
:10181000FF938091A0058D5F8D3708F08D578093E1
:10182000A005E1EAF5E080818E4F808391819F4F92
:10183000918382818F4F828383818F4F8383E5EAF7
:10184000F5E080818F5F808381818F4F81838281EA
:101850008F4F828383818F4F83838FB18F6066998F
:101860001C9B88278F3681F480919F05981B9630AA
:1018700068F0E0E0F8E087E78083818388E1809387
:101880006000F0936000FFCF90939F05FF91EF9170
:101890009F918F910FBE0F9018951F920F920FB6C8
:1018A0000F9211248F939F93AF93BF93EF93FF9366
:1018B00080918F0190919001A0919101B09192013E
:1018C000892B8A2B8B2BA1F190918E01E0918C01B9
:1018D000F0918D0180818927808380918F01909183
:1018E0009001A0919101B0919201181619061A0663
:1018F0001B069CF480918F0190919001A091910121
:10190000B09192010197A109B10980938F01909341
:101910009001A0939101B0939201FF91EF91BF913B
:10192000AF919F918F910F900FBE0F901F901895C0
:10193000809171008D7F8093710080918E01E09184
:101940008C01F0918D019081809589238083E5CF72
:101950001F920F920FB60F9211248F939F93809135
:1019600093058F5F80939305843018F081E0809316
:101970009305809193058130D9F080919305823051
:1019800039F080919305833099F080E090E002C0B7
:1019900080E991E09093BF008093D10081E0809333
:1019A00094059F918F910F900FBE0F901F901895E7
:1019B0008AE1ECCFEF92FF920F931F93CF93DF93C7
:1019C000F82E192FE62E042F81E0860F880F0E9433
:1019D000460483E00E944604CF2DD12FEC0EFD2E4D
:1019E000F11CCE15DF05B9F007FF13C0FE0184918D
:1019F0000E944604182F80E00E944604812321960D
:101A00008111EFCFDF91CF911F910F91FF90EF9058
:101A100008958881EDCF81E0F5CFEFEBF5E01382FB
:101A2000128288EE93E0A0E0B0E084839583A683E1
:101A3000B78386E291E0918380838FEF9FEF958754
:101A40008487EFE0F6E01382128288E391E09183CD
:101A50008083089500D0CDB7DEB7789483E084BD4D
:101A600083E085BD81E080936E00E1E8F0E083E0F3
:101A70008083E0E881E08083E1E983E08083E0E93E
:101A800081E08083E1EC87E08083E3EC81E0808388
:101A9000E0EC82E08083E2EC81E08083EAE787E0AB
:101AA0008083806880831092BE051092AE051092EC
:101AB000B0058091D70081608093D70080EA809341
:101AC000D80089B5806189BD89B5826089BD09B4B6
:101AD00000FEFDCF81E090E00E94D8048091D80004
:101AE0008F7C80618093D8008091E000807F80931C
:101AF000E0008091E1008E7E8093E1008DE0809394
:101B0000E200559A209A81EC80937C0081EF85B9A0
:101B100087EE84B982E38BB982EF8AB9769A6E98A0
:101B200080EF81BB10BA80E58CBD21E02DBD0E9405
:101B3000EC045F9A0E94EC045C98E7E0F6E0859183
:101B40000E946F07E431D9F75C9A81E880936400C2
:101B500081E08093650066E084E196E00E94FE08E3
:101B60009FB7F894E1E0E093BF0080E98093D10053
:101B70001092C00089E08093C100E093C2001092EF
:101B8000C3001092BF001092BF001092BE0080915F
:101B900072008460809372009FBF83E08093010194
:101BA00094E1892E912CA12CB12C28E1622E712C6C
:101BB00034E6232E312C80E0482E80E0582EF89415
:101BC00080919405811109C083B7816083BF7894A7
:101BD000889583B78E7F83BFF2CF10929405789457
:101BE00080919A0580FD7DC0F9E1F98381FF02C0F3
:101BF0008FEF89835C9881E80E946F0789810E943A
:101C00006F075C9A80919305813009F06DC065E0A3
:101C10008FE196E00E94FE0880919305833079F66B
:101C200080919505882309F43DC0815080939505E6
:101C30008FB18095807F669B88601C9B84609091AB
:101C4000020120910401222309F499C09F5F90931F
:101C5000020190910501992329F0909103019F5F62
:101C60009093030190910601992329F0909103012B
:101C7000915090930301909103019A83911181C037
:101C8000E1E0E09305011092060190919E059130EC
:101C900009F494C008F47FC0923009F431C2933043
:101CA00009F44CC280919E05813009F491C208F478
:101CB00064C2823009F4E3C2833009F079C285E05E
:101CC00090E09093990580939805709297056092A3
:101CD000960582E08093010140E250E066E571E004
:101CE000DDC225E5298382CF823069F420EF41E00F
:101CF00050E070E060E083E195E00E94E40863E07A
:101D00008CE196E087CF833009F086CF63E08CE1E9
:101D100096E00E94FE082FEF41E050E070E060E0A6
:101D200083E195E00E94E40862E08AE196E00E9487
:101D3000FE082FEF47E051E061E070E083E991E0B9
:101D40000E94E40820E041E050E061E070E083E1BF
:101D500095E00E94E40880919A058F5F833060F4DB
:101D600080939A0580919A05811156CF80919505AF
:101D70008F5F8093950550CF10929A05F3CF9150C5
:101D800066CFFA81FE3309F080CF1092050121E081
:101D9000209306017ACF9091020191110AC091E03F
:101DA000909304018C7009F4E8C1E1E0E0939E0592
:101DB00079CF9E37B9F710920401F4CF90919C052A
:101DC000953318F094E390939C0590919C0599238A
:101DD00029F087FF03C0915090939C0590919C053A
:101DE000903428F484FF03C09F5F90939C05F0918A
:101DF0000201F983CF2EFF0FDD0880919B0590E053
:101E00000496C816D90689F52A81E22E220FFF080A
:101E100000919C0510E0C7010196801791072CF1F5
:101E2000C8010B968E159F0504F10E94A607C801F4
:101E30000596E816F90621F41092050110920601A4
:101E40000C5F1F4F0E151F052CF010920501E1E0ED
:101E5000E09306018E159F052CF410920601F1E027
:101E6000F093050121E02093040182E0C80ED11C0B
:101E7000809108018C151D0489F59A81092F990F0D
:101E8000110BE0900901F12CC80101968E159F05F8
:101E90002CF1C7010B968017910704F10E949D0752
:101EA000C70105960817190721F410920501109231
:101EB0000601E4E0EE0EF11CE016F1062CF01092A3
:101EC0000501F1E0F0930601801791072CF421E061
:101ED00020930501109206011092040189818F3F21
:101EE00054F480910A018F5F80930A019EE39093DE
:101EF00002010E949407809102018E3754F1809173
:101F00009D058F5F80939D05EEE3E09302010E94A3
:101F10009D0762E170E080E090E00E948B050E94E6
:101F2000A60762E170E080E090E00E948B050E94CD
:101F30009D0762E170E080E090E00E948B050E94C6
:101F4000A60769E170E080E090E00E948B050E94A6
:101F50008B0780910A018B30C1F50E9494076EE1D6
:101F600070E080E090E00E948B052CE330E040E0E0
:101F700050E06AEB72E085E00E94B3056EE170E02C
:101F800080E090E00E948B052CE330E040E050E0E0
:101F90006BE472E085E00E94B3056EE170E080E0E2
:101FA00090E00E948B0526E430E040E050E06AE2D9
:101FB00072E085E00E94B3056EE170E080E090E0A1
:101FC0000E948B0582E080939E0580919D058B3059
:101FD00009F040C00E948B076EE170E080E090E065
:101FE0000E948B052CE330E040E050E060E773E0B6
:101FF00085E00E94B3056EE170E080E090E00E9411
:102000008B050E948B076EE170E080E090E00E94FB
:102010008B052CE330E040E050E065E775E085E0BB
:102020000E94B3056EE170E080E090E00E948B05B5
:102030002CE330E040E050E060E276E085E00E9492
:10204000B3056EE170E080E090E00E948B0583E0D4
:1020500080939E05809102018536A4F18091030151
:10206000082E000C990B209109012817190609F078
:102070007CF40E949F11A50194010E94F711683021
:1020800071058105910549F480910901823028F09C
:1020900080910901815080930901409109012091AB
:1020A0000301022E000C330B842F90E00A96821756
:1020B0009307ACF4443398F4809109018F5F8093C7
:1020C0000901F0CD0E949F11A50194010E94F71112
:1020D000613071058105910509F0E4CDBFCF0E9403
:1020E0009F11A50194010E94F711673071058105C8
:1020F000910509F0D7CD809109018433E8F2D2CD62
:1021000090910201911115C0F1E0F09304018C70DF
:1021100009F4B5C010929D0510920A0184E18093E4
:102120009C0580E4809302011092040110929E05A8
:10213000B9CD9E3761F710920401E9CF9091020169
:10214000911116C021E0209304018C7009F4B7CDE1
:1021500010929D0510920A0184E180939C0580E411
:10216000809302011092040181E080939E059ACD34
:102170009E3759F710920401E8CFE2E3F0E0F093C4
:102180009905E09398057092970560929605F1E0A5
:10219000F093010104E216E0F8016491662341F036
:1021A0008FE096E00E9436080F5F1F4F892BA1F742
:1021B00001E022E042E060910301809102010E946F
:1021C000AF074114510409F4FACC0E940000F3CC8B
:1021D00083E08093010184E190E0909399058093DE
:1021E0009805109297051092960560919D0570E0F4
:1021F00090E080E04AE00E94140930929905209214
:102200009805109297051092960560910A0170E06A
:1022100090E080E04AE00E94140910E000E091E0C4
:10222000998380919A05811119826801E4E0CE0EAC
:10223000D11C7801EC14FD0454F44981B70180E409
:1022400090E00E947507FFEFEF1AFF0AF3CF085FD7
:102250001F4F0034110519F709812CE044E060910B
:102260009C0580919B050E94AF0709812CE044E00A
:1022700060910901809108010E94AF0799CF1092E7
:10228000990510929805109297051092960582E094
:102290008093010145E150E060E471E08FE096E059
:1022A0000E94420785CF8F929F92AF92BF92CF92AA
:1022B000DF92EF92FF92CF93DF93EC0168817981F7
:1022C0008A819B81611571058105910521F464E284
:1022D00079ED8BE597E02DE133EF41E050E00E948E
:1022E000F71149015A019B01AC01A7EAB1E40E9430
:1022F00016126B017C01ACEEB4EFA50194010E94B3
:102300002412C60ED71EE81EF91EF7FE06C081E095
:10231000C81AD108E10880E8F80AC882D982EA829E
:10232000FB82C701B6019F77DF91CF91FF90EF90BD
:10233000DF90CF90BF90AF909F908F9008958F9235
:102340009F92AF92BF92CF92DF92EF92FF926091F5
:102350001701709118018091190190911A0161156E
:1023600071058105910521F464E279ED8BE597E033
:102370002DE133EF41E050E00E94F71149015A018D
:102380009B01AC01A7EAB1E40E9416126B017C012B
:10239000ACEEB4EFA50194010E942412C60ED71E24
:1023A000E81EF91EF7FE06C081E0C81AD108E10850
:1023B00080E8F80AC0921701D0921801E092190142
:1023C000F0921A01C701B6019F77FF90EF90DF905E
:1023D000CF90BF90AF909F908F900895609317011A
:1023E000709318018093190190931A010895052E96
:1023F00097FB1EF400940E940E1257FD07D00E9416
:10240000291207FC03D04EF40C940E1250954095FF
:10241000309521953F4F4F4F5F4F08959095809590
:10242000709561957F4F8F4F9F4F08950E944B127B
:10243000A59F900DB49F900DA49F800D911D112418
:102440000895B7FF0C9416120E941612821B930B6C
:102450000895A1E21A2EAA1BBB1BFD010DC0AA1FE5
:10246000BB1FEE1FFF1FA217B307E407F50720F0FD
:10247000A21BB30BE40BF50B661F771F881F991F78
:102480001A9469F760957095809590959B01AC01C1
:10249000BD01CF010895A29FB001B39FC001A39FCA
:1024A000700D811D1124911DB29F700D811D11248D
:1024B000911D0895EE0FFF1F0590F491E02D0994F2
:0424C000F894FFCFBE
:1024C400FF013E1E010100037C0000FFFFFFFF002F
:1024D400E10000000000000100000000C180810054
:1024E400000000000000C503F004E603DB032C0435
:1024F400EA03080400000000360842071109100925
:102504004841484121200A492057494E2C200A4C71
:102514004F5345522100594F55204655434B494E80
:10252400204449442049542C0A20202020202043C0
:0825340048414D502121000037
:00000001FF
